{
    "contractName": "Staking",
    "abi": [
        {
            "inputs": [
                {
                    "internalType": "address",
                    "name": "_stableToken",
                    "type": "address"
                },
                {
                    "internalType": "address",
                    "name": "_siteToken",
                    "type": "address"
                }
            ],
            "stateMutability": "nonpayable",
            "type": "constructor"
        },
        {
            "inputs": [],
            "name": "discountRate",
            "outputs": [
                {
                    "internalType": "uint256",
                    "name": "",
                    "type": "uint256"
                }
            ],
            "stateMutability": "view",
            "type": "function"
        },
        {
            "inputs": [],
            "name": "feeRate",
            "outputs": [
                {
                    "internalType": "uint256",
                    "name": "",
                    "type": "uint256"
                }
            ],
            "stateMutability": "view",
            "type": "function"
        },
        {
            "inputs": [
                {
                    "internalType": "address",
                    "name": "user",
                    "type": "address"
                }
            ],
            "name": "getStake",
            "outputs": [
                {
                    "internalType": "uint256",
                    "name": "",
                    "type": "uint256"
                },
                {
                    "internalType": "uint256",
                    "name": "",
                    "type": "uint256"
                }
            ],
            "stateMutability": "view",
            "type": "function"
        },
        {
            "inputs": [],
            "name": "owner",
            "outputs": [
                {
                    "internalType": "address",
                    "name": "",
                    "type": "address"
                }
            ],
            "stateMutability": "view",
            "type": "function"
        },
        {
            "inputs": [],
            "name": "rewardRate",
            "outputs": [
                {
                    "internalType": "uint256",
                    "name": "",
                    "type": "uint256"
                }
            ],
            "stateMutability": "view",
            "type": "function"
        },
        {
            "inputs": [],
            "name": "siteToken",
            "outputs": [
                {
                    "internalType": "contract IERC20",
                    "name": "",
                    "type": "address"
                }
            ],
            "stateMutability": "view",
            "type": "function"
        },
        {
            "inputs": [],
            "name": "stableToken",
            "outputs": [
                {
                    "internalType": "contract IERC20",
                    "name": "",
                    "type": "address"
                }
            ],
            "stateMutability": "view",
            "type": "function"
        },
        {
            "inputs": [
                {
                    "internalType": "uint256",
                    "name": "amount",
                    "type": "uint256"
                }
            ],
            "name": "stake",
            "outputs": [],
            "stateMutability": "nonpayable",
            "type": "function"
        },
        {
            "inputs": [
                {
                    "internalType": "address",
                    "name": "",
                    "type": "address"
                }
            ],
            "name": "stakes",
            "outputs": [
                {
                    "internalType": "uint256",
                    "name": "amount",
                    "type": "uint256"
                },
                {
                    "internalType": "uint256",
                    "name": "timestamp",
                    "type": "uint256"
                }
            ],
            "stateMutability": "view",
            "type": "function"
        },
        {
            "inputs": [],
            "name": "tokenPrice",
            "outputs": [
                {
                    "internalType": "uint256",
                    "name": "",
                    "type": "uint256"
                }
            ],
            "stateMutability": "view",
            "type": "function"
        },
        {
            "inputs": [
                {
                    "internalType": "bool",
                    "name": "payWithSiteToken",
                    "type": "bool"
                }
            ],
            "name": "unstake",
            "outputs": [],
            "stateMutability": "nonpayable",
            "type": "function"
        },
        {
            "inputs": [
                {
                    "internalType": "uint256",
                    "name": "_discountRate",
                    "type": "uint256"
                }
            ],
            "name": "updateDiscountRate",
            "outputs": [],
            "stateMutability": "nonpayable",
            "type": "function"
        },
        {
            "inputs": [
                {
                    "internalType": "uint256",
                    "name": "_feeRate",
                    "type": "uint256"
                }
            ],
            "name": "updateFeeRate",
            "outputs": [],
            "stateMutability": "nonpayable",
            "type": "function"
        },
        {
            "inputs": [
                {
                    "internalType": "uint256",
                    "name": "_tokenPrice",
                    "type": "uint256"
                }
            ],
            "name": "updateTokenPrice",
            "outputs": [],
            "stateMutability": "nonpayable",
            "type": "function"
        }
    ],
    "bytecode": "0x6080604052600a60035560646004556032600555620186a060065534801562000026575f80fd5b50d3801562000033575f80fd5b50d2801562000040575f80fd5b5060405162001401380380620014018339818101604052810190620000669190620001bf565b335f806101000a81548173ffffffffffffffffffffffffffffffffffffffff021916908373ffffffffffffffffffffffffffffffffffffffff1602179055508160015f6101000a81548173ffffffffffffffffffffffffffffffffffffffff021916908373ffffffffffffffffffffffffffffffffffffffff1602179055508060025f6101000a81548173ffffffffffffffffffffffffffffffffffffffff021916908373ffffffffffffffffffffffffffffffffffffffff160217905550505062000204565b5f80fd5b5f74ffffffffffffffffffffffffffffffffffffffffff82169050919050565b6200015c8162000131565b811462000167575f80fd5b50565b5f73ffffffffffffffffffffffffffffffffffffffff82169050919050565b5f62000195826200016a565b9050919050565b5f81519050620001ac8162000151565b620001b78162000189565b905092915050565b5f8060408385031215620001d857620001d76200012d565b5b5f620001e7858286016200019c565b9250506020620001fa858286016200019c565b9150509250929050565b6111ef80620002125f395ff3fe608060405234801561000f575f80fd5b50d3801561001b575f80fd5b50d28015610027575f80fd5b5060043610610100575f3560e01c80637b84fda5116100a2578063978bbdb91161007c578063978bbdb91461024e578063a694fc3a1461026c578063a9d75b2b14610288578063e6c0e6d5146102a657610100565b80637b84fda5146101f65780637ff9b596146102125780638da5cb5b1461023057610100565b8063676c0d77116100de578063676c0d771461016d57806379704d74146101895780637a766460146101a75780637b0a47ee146101d857610100565b8063088abb8d1461010457806316934fc41461012057806362832b0014610151575b5f80fd5b61011e60048036038101906101199190610bb4565b6102c4565b005b61013a60048036038101906101359190610c64565b610753565b604051610148929190610ca7565b60405180910390f35b61016b60048036038101906101669190610cf8565b610773565b005b61018760048036038101906101829190610cf8565b61080a565b005b6101916108a1565b60405161019e9190610d7e565b60405180910390f35b6101c160048036038101906101bc9190610c64565b6108c6565b6040516101cf929190610ca7565b60405180910390f35b6101e0610939565b6040516101ed9190610d97565b60405180910390f35b610210600480360381019061020b9190610cf8565b61093f565b005b61021a6109d6565b6040516102279190610d97565b60405180910390f35b6102386109dc565b6040516102459190610dbf565b60405180910390f35b6102566109ff565b6040516102639190610d97565b60405180910390f35b61028660048036038101906102819190610cf8565b610a05565b005b610290610b50565b60405161029d9190610d7e565b60405180910390f35b6102ae610b75565b6040516102bb9190610d97565b60405180910390f35b5f60075f3373ffffffffffffffffffffffffffffffffffffffff1673ffffffffffffffffffffffffffffffffffffffff1681526020019081526020015f2090505f815f015411610349576040517f08c379a000000000000000000000000000000000000000000000000000000000815260040161034090610e32565b60405180910390fd5b5f6064600354835f015461035d9190610e7d565b6103679190610eeb565b90505f81835f01546103799190610f1b565b90505f6127106004548361038d9190610e7d565b6103979190610eeb565b90505f81836103a69190610f4e565b9050851561058a575f6064600554846103bf9190610e7d565b6103c99190610eeb565b90505f600654620f4240836103de9190610e7d565b6103e89190610eeb565b90508060025f9054906101000a900473ffffffffffffffffffffffffffffffffffffffff1673ffffffffffffffffffffffffffffffffffffffff166370a08231336040518263ffffffff1660e01b81526004016104459190610dbf565b602060405180830381865afa158015610460573d5f803e3d5ffd5b505050506040513d601f19601f820116820180604052508101906104849190610f95565b10156104c5576040517f08c379a00000000000000000000000000000000000000000000000000000000081526004016104bc90611030565b60405180910390fd5b60025f9054906101000a900473ffffffffffffffffffffffffffffffffffffffff1673ffffffffffffffffffffffffffffffffffffffff166323b872dd335f8054906101000a900473ffffffffffffffffffffffffffffffffffffffff16846040518463ffffffff1660e01b81526004016105429392919061104e565b6020604051808303815f875af115801561055e573d5f803e3d5ffd5b505050506040513d601f19601f820116820180604052508101906105829190611097565b505050610647565b60015f9054906101000a900473ffffffffffffffffffffffffffffffffffffffff1673ffffffffffffffffffffffffffffffffffffffff1663a9059cbb5f8054906101000a900473ffffffffffffffffffffffffffffffffffffffff16846040518363ffffffff1660e01b81526004016106059291906110c2565b6020604051808303815f875af1158015610621573d5f803e3d5ffd5b505050506040513d601f19601f820116820180604052508101906106459190611097565b505b60405180604001604052805f81526020015f81525060075f3373ffffffffffffffffffffffffffffffffffffffff1673ffffffffffffffffffffffffffffffffffffffff1681526020019081526020015f205f820151815f01556020820151816001015590505060015f9054906101000a900473ffffffffffffffffffffffffffffffffffffffff1673ffffffffffffffffffffffffffffffffffffffff1663a9059cbb33836040518363ffffffff1660e01b815260040161070a9291906110c2565b6020604051808303815f875af1158015610726573d5f803e3d5ffd5b505050506040513d601f19601f8201168201806040525081019061074a9190611097565b50505050505050565b6007602052805f5260405f205f91509050805f0154908060010154905082565b5f8054906101000a900473ffffffffffffffffffffffffffffffffffffffff1673ffffffffffffffffffffffffffffffffffffffff163373ffffffffffffffffffffffffffffffffffffffff1614610800576040517f08c379a00000000000000000000000000000000000000000000000000000000081526004016107f790611133565b60405180910390fd5b8060058190555050565b5f8054906101000a900473ffffffffffffffffffffffffffffffffffffffff1673ffffffffffffffffffffffffffffffffffffffff163373ffffffffffffffffffffffffffffffffffffffff1614610897576040517f08c379a000000000000000000000000000000000000000000000000000000000815260040161088e90611133565b60405180910390fd5b8060068190555050565b60025f9054906101000a900473ffffffffffffffffffffffffffffffffffffffff1681565b5f805f60075f8573ffffffffffffffffffffffffffffffffffffffff1673ffffffffffffffffffffffffffffffffffffffff1681526020019081526020015f206040518060400160405290815f82015481526020016001820154815250509050805f015181602001519250925050915091565b60035481565b5f8054906101000a900473ffffffffffffffffffffffffffffffffffffffff1673ffffffffffffffffffffffffffffffffffffffff163373ffffffffffffffffffffffffffffffffffffffff16146109cc576040517f08c379a00000000000000000000000000000000000000000000000000000000081526004016109c390611133565b60405180910390fd5b8060048190555050565b60065481565b5f8054906101000a900473ffffffffffffffffffffffffffffffffffffffff1681565b60045481565b5f8111610a47576040517f08c379a0000000000000000000000000000000000000000000000000000000008152600401610a3e9061119b565b60405180910390fd5b60015f9054906101000a900473ffffffffffffffffffffffffffffffffffffffff1673ffffffffffffffffffffffffffffffffffffffff166323b872dd3330846040518463ffffffff1660e01b8152600401610aa59392919061104e565b6020604051808303815f875af1158015610ac1573d5f803e3d5ffd5b505050506040513d601f19601f82011682018060405250810190610ae59190611097565b5060405180604001604052808281526020014281525060075f3373ffffffffffffffffffffffffffffffffffffffff1673ffffffffffffffffffffffffffffffffffffffff1681526020019081526020015f205f820151815f01556020820151816001015590505050565b60015f9054906101000a900473ffffffffffffffffffffffffffffffffffffffff1681565b60055481565b5f80fd5b5f8115159050919050565b610b9381610b7f565b8114610b9d575f80fd5b50565b5f81359050610bae81610b8a565b92915050565b5f60208284031215610bc957610bc8610b7b565b5b5f610bd684828501610ba0565b91505092915050565b5f74ffffffffffffffffffffffffffffffffffffffffff82169050919050565b610c0881610bdf565b8114610c12575f80fd5b50565b5f73ffffffffffffffffffffffffffffffffffffffff82169050919050565b5f610c3e82610c15565b9050919050565b5f81359050610c5381610bff565b610c5c81610c34565b905092915050565b5f60208284031215610c7957610c78610b7b565b5b5f610c8684828501610c45565b91505092915050565b5f819050919050565b610ca181610c8f565b82525050565b5f604082019050610cba5f830185610c98565b610cc76020830184610c98565b9392505050565b610cd781610c8f565b8114610ce1575f80fd5b50565b5f81359050610cf281610cce565b92915050565b5f60208284031215610d0d57610d0c610b7b565b5b5f610d1a84828501610ce4565b91505092915050565b5f819050919050565b5f610d46610d41610d3c84610c15565b610d23565b610c15565b9050919050565b5f610d5782610d2c565b9050919050565b5f610d6882610d4d565b9050919050565b610d7881610d5e565b82525050565b5f602082019050610d915f830184610d6f565b92915050565b5f602082019050610daa5f830184610c98565b92915050565b610db981610c34565b82525050565b5f602082019050610dd25f830184610db0565b92915050565b5f82825260208201905092915050565b7f4e616461207061726120726574697261720000000000000000000000000000005f82015250565b5f610e1c601183610dd8565b9150610e2782610de8565b602082019050919050565b5f6020820190508181035f830152610e4981610e10565b9050919050565b7f4e487b71000000000000000000000000000000000000000000000000000000005f52601160045260245ffd5b5f610e8782610c8f565b9150610e9283610c8f565b9250828202610ea081610c8f565b91508282048414831517610eb757610eb6610e50565b5b5092915050565b7f4e487b71000000000000000000000000000000000000000000000000000000005f52601260045260245ffd5b5f610ef582610c8f565b9150610f0083610c8f565b925082610f1057610f0f610ebe565b5b828204905092915050565b5f610f2582610c8f565b9150610f3083610c8f565b9250828201905080821115610f4857610f47610e50565b5b92915050565b5f610f5882610c8f565b9150610f6383610c8f565b9250828203905081811115610f7b57610f7a610e50565b5b92915050565b5f81519050610f8f81610cce565b92915050565b5f60208284031215610faa57610fa9610b7b565b5b5f610fb784828501610f81565b91505092915050565b7f53616c646f20696e737566696369656e746520656e20746f6b656e2064656c205f8201527f736974696f000000000000000000000000000000000000000000000000000000602082015250565b5f61101a602583610dd8565b915061102582610fc0565b604082019050919050565b5f6020820190508181035f8301526110478161100e565b9050919050565b5f6060820190506110615f830186610db0565b61106e6020830185610db0565b61107b6040830184610c98565b949350505050565b5f8151905061109181610b8a565b92915050565b5f602082840312156110ac576110ab610b7b565b5b5f6110b984828501611083565b91505092915050565b5f6040820190506110d55f830185610db0565b6110e26020830184610c98565b9392505050565b7f4e6f206175746f72697a61646f000000000000000000000000000000000000005f82015250565b5f61111d600d83610dd8565b9150611128826110e9565b602082019050919050565b5f6020820190508181035f83015261114a81611111565b9050919050565b7f4e6164612070617261207374616b6561720000000000000000000000000000005f82015250565b5f611185601183610dd8565b915061119082611151565b602082019050919050565b5f6020820190508181035f8301526111b281611179565b905091905056fea26474726f6e58221220aa64ea96d0cc3b5b1ea3900e8c6ed83a0cce3548206307ad4936329c588a91f064736f6c63430008170033",
    "source": "\n// SPDX-License-Identifier: MIT\npragma solidity ^0.8.0;\n\ninterface IERC20 {\n    function transferFrom(address sender, address recipient, uint256 amount) external returns (bool);\n    function transfer(address recipient, uint256 amount) external returns (bool);\n    function balanceOf(address account) external view returns (uint256);\n}\n\ncontract Staking {\n    address public owner;\n    IERC20 public stableToken; // USDT o USDD\n    IERC20 public siteToken;   // Token del sitio (para pagar comisiones con descuento)\n    uint256 public rewardRate = 10; // 10% de recompensa\n    uint256 public feeRate = 100;   // 1% de comisión (100 = 1%, 50 = 0.5%)\n    uint256 public discountRate = 50; // 50% de descuento si se paga con token del sitio\n    uint256 public tokenPrice = 1e5; // Placeholder: precio ficticio del token en 6 decimales (ej: 0.10 USDT = 100000)\n\n    struct StakeInfo {\n        uint256 amount;\n        uint256 timestamp;\n    }\n\n    mapping(address => StakeInfo) public stakes;\n\n    modifier onlyOwner() {\n        require(msg.sender == owner, \"No autorizado\");\n        _;\n    }\n\n    constructor(address _stableToken, address _siteToken) {\n        owner = msg.sender;\n        stableToken = IERC20(_stableToken);\n        siteToken = IERC20(_siteToken);\n    }\n\n    function stake(uint256 amount) external {\n        require(amount > 0, \"Nada para stakear\");\n        stableToken.transferFrom(msg.sender, address(this), amount);\n        stakes[msg.sender] = StakeInfo(amount, block.timestamp);\n    }\n\n    function unstake(bool payWithSiteToken) external {\n        StakeInfo storage user = stakes[msg.sender];\n        require(user.amount > 0, \"Nada para retirar\");\n\n        uint256 reward = (user.amount * rewardRate) / 100;\n        uint256 grossAmount = user.amount + reward;\n\n        // Comisión\n        uint256 fee = (grossAmount * feeRate) / 10000; // feeRate de 100 = 1%\n        uint256 netAmount = grossAmount - fee;\n\n        // Aplicar descuento si paga con token del sitio\n        if (payWithSiteToken) {\n            uint256 discountedFee = (fee * discountRate) / 100; // Aplica descuento\n            uint256 siteTokenAmount = (discountedFee * 1e6) / tokenPrice; // Suponiendo 6 decimales en tokenPrice\n            require(siteToken.balanceOf(msg.sender) >= siteTokenAmount, \"Saldo insuficiente en token del sitio\");\n            siteToken.transferFrom(msg.sender, owner, siteTokenAmount);\n        } else {\n            stableToken.transfer(owner, fee); // El fee va al owner\n        }\n\n        // Reset y envío\n        stakes[msg.sender] = StakeInfo(0, 0);\n        stableToken.transfer(msg.sender, netAmount);\n    }\n\n    function updateFeeRate(uint256 _feeRate) external onlyOwner {\n        feeRate = _feeRate;\n    }\n\n    function updateDiscountRate(uint256 _discountRate) external onlyOwner {\n        discountRate = _discountRate;\n    }\n\n    function updateTokenPrice(uint256 _tokenPrice) external onlyOwner {\n        tokenPrice = _tokenPrice;\n    }\n\n    function getStake(address user) external view returns (uint256, uint256) {\n        StakeInfo memory s = stakes[user];\n        return (s.amount, s.timestamp);\n    }\n}\n",
    "sourcePath": "/home/fabian/Escritorio/staking-web3/staking-tron/contracts/Staking.sol",
    "compiler": {
        "name": "solc",
        "version": "0.8.23+commit.8ed33446.Emscripten.clang"
    },
    "schemaVersion": "2.0.1",
    "updatedAt": "2025-05-05T07:54:42.744Z"
}